:020000040000FA
:10000000A8810020FD020000050300000703000096
:10001000090300000B0300000D03000000000000B6
:100020000000000000000000000000000F030000BE
:10003000110300000000000013030000150300007E
:100040001703000017030000450B000085070000A0
:100050001703000017030000E90400003D0600003C
:10006000F50A000017030000170300001703000043
:100070001703000017030000170300001703000018
:100080001703000017030000170300001703000008
:1000900017030000170300001703000017030000F8
:1000A00017030000170300001703000017030000E8
:1000B000170300001703000000000000000000000C
:1000C00017030000170300001703000017030000C8
:1000D00017030000170300001703000000000000D2
:1000E0000000000000000000000000000000000010
:1000F0000000000000000000000000000000000000
:1001000000000000000000000000000000000000EF
:1001100000000000000000000000000000000000DF
:1001200000000000000000000000000000000000CF
:1001300000000000000000000000000000000000BF
:1001400000000000000000000000000000000000AF
:10015000000000000000000000000000000000009F
:10016000000000000000000000000000000000008F
:10017000000000000000000000000000000000007F
:10018000000000000000000000000000000000006F
:10019000000000000000000000000000000000005F
:1001A000000000000000000000000000000000004F
:1001B000000000000000000000000000000000003F
:1001C000000000000000000000000000000000002F
:1001D000000000000000000000000000000000001F
:1001E000000000000000000000000000000000000F
:1001F00000000000000000000000000000000000FF
:10020000DFF810D000F032F90048004725E4010083
:10021000AFF30080A881002030B4044654E8000FFA
:100220000D4644E80053002BF8D1156030BC7047F0
:1002300030B4044654E8000F40EA010544E8005396
:10024000002BF7D1156030BC704730B4044654E839
:10025000000F00EA010544E80053002BF7D11560B8
:1002600030BC704730B4044654E8000F80EA010502
:1002700044E80053002BF7D1156030BC704730B410
:10028000044654E8000F00EB010544E80053002B3E
:10029000F7D1156030BC704730B4044654E8000F05
:1002A000A0EB010544E80053002BF7D1156030BCEA
:1002B000704770B404464FF0000054E8006F0D68BA
:1002C000AE4207BF44E80023012044E800630E600B
:1002D000002B1CBF0020F0E770BC704730B4044610
:1002E00054E8000F88422CBF451A054644E80053E5
:1002F000002BF5D1156030BC7047000006488047E0
:1003000006480047FEE7FEE7FEE7FEE7FEE7FEE7FA
:10031000FEE7FEE7FEE7FEE7D90700000102000066
:100320002DE9F05F0546002092469B46884606462A
:10033000814640241BE0284641464746224600F0BD
:1003400084F853465A46C01A914110D311461846B4
:10035000224600F06BF82D1A67EB01084F46224643
:100360000120002100F062F817EB00094E41201E29
:10037000A4F10104DFDC484631462A464346BDE885
:10038000F09F0000004870476488020010B5431ACF
:10039000934209D28318881803E010F8011D03F86E
:1003A000011D521EF9D210BD40EA01039B0703D084
:1003B00009E008C9121F08C0042AFAD203E011F8A4
:1003C000013B00F8013B521EF9D210BDD2B201E050
:1003D00000F8012B491EFBD270470022F6E710B54A
:1003E00013460A4604461946FFF7F0FF204610BDA3
:1003F000421C10F8011B0029FBD1801A704710B570
:10040000002200E0521C835C8C5CA34201D1002BD3
:10041000F8D1D8B2E1B2401A10BD034611F8012B51
:1004200000F8012B002AF9D118467047202A04DB76
:10043000203A00FA02F1002070479140C2F12003F7
:1004400020FA03F3194390407047202A04DB203A36
:1004500021FA02F00021704721FA02F3D040C2F1E4
:10046000200291400843194670470000064C074D92
:1004700006E0E06840F0010394E807009847103474
:10048000AC42F6D3FFF7C0FEF08D0200108E0200E2
:1004900070B58C1810F8015B15F0070301D110F846
:1004A000013B2A1106D110F8012B03E010F8016B73
:1004B00001F8016B5B1EF9D12B0705D40023521EF6
:1004C0000DD401F8013BFAE710F8013BCB1A921C5E
:1004D00003E013F8015B01F8015B521EF9D5A1425C
:1004E000D8D3002070BD00002DE9F043002589B06D
:1004F000DFF84091A8464FF4807601242F460695F8
:1005000030461EF0B9FE38B1D9F80403204203D0BA
:1005100030461EF0A7FE2543361D64007F1CB6B290
:10052000082FEDD34FF4BE7420461EF0A5FE48B14F
:1005300020461EF097FE45F0004506AA0121002046
:100540001EF07CFE3C4E15F0FF0F15D00127002455
:100550002F420DD009EB8401D1F81005D1F8101508
:10056000C0F3042056F82420C1F3014102B19047A2
:100570007F00641C082CEBD3002D2DDA4FF0FF30E8
:10058000CDF808804AE004A920461EF0EEFB0028C2
:1005900022D04FEA9518204603F0D0FA56F82050A2
:1005A0001DB1B8F1030F03D006E0B8F1030F13D16A
:1005B00002A920461EF0E1FB4FF0A04000EB8400B2
:1005C000D0F8000706A9C0F3014920461EF0CDFB74
:1005D00028B1B9F1020F05D009B0BDE8F083B9F137
:1005E000030FF9D1B8F1030F07D1B9F1020F1FD0F2
:1005F000022120461EF0F8FD012715B14146204694
:10060000A847002FE8D06A46012100201EF016FE00
:10061000069900988842DFD006900298049096F8D8
:100620004450002768B225F0C004401CABD1D3E78A
:100630000321DEE700600040440500202DE9FE4371
:100640004FF4827840461FF027F94C4F00254C4C60
:10065000012600B340461FF027F994F82E0010B190
:1006600094F82F10D1B18DF8005061680191218963
:10067000ADF80810E26832B1218B6183626021819C
:10068000E56010B102E0257400E03E602168684634
:10069000884784F82F5094F82E0060B34FF4807789
:1006A00038461FF0F9F830B338461FF0FDF8628B7A
:1006B00094F82D108A420AD9A2EB010080B260831F
:1006C0002289A2EB0000626802EB400005E007D13E
:1006D000E06828B184F82F6065831FF0D5F804E046
:1006E0008A4202D184F82F60658340461FF0DCF80F
:1006F0002248001D06604FF4887738461FF0CCF87A
:1007000048B138461FF0D0F8257402208DF800005B
:100710002168684688474FF48A7738461FF0BCF84E
:1007200028B138461FF0C0F82574BDE8FE834FF0AD
:1007300000484FF48C7967691DE000BFB7FA87F075
:1007400028FA00F109EB80058F4328461FF0A4F832
:1007500088B128461FF0A8F8A5F58C75E8088DF833
:10076000040045F38000401C8DF800608DF8050002
:10077000216868468847002FE0D1D6E70070004026
:10078000B8040020F8B51248124E04464FF48C719C
:100790001FF094F800281AD00025C4F81851D4F896
:1007A00018010090F07F3446FF2806D0A17F11B1D8
:1007B0001EF02BFD01E01EF02FFD65772572D4E9B8
:1007C000002101B004F10800BDE8F0401047F8BD79
:1007D00000300040A8050020F0B5B5480023021DF8
:1007E0000178101D01254FF0805406290BD1167891
:1007F000360708D10678C6F30316032E06D0042E5A
:1008000004D0052E02D0062907D00EE0B4F82463E8
:10081000A84FC6F304263E6002E01678360704D1DE
:100820000678C6F30316032E02D0062904D00FE083
:10083000A24FA14E7E670EE01678360708D10678E3
:10084000C6F30316032E06D0042E04D0052E02D0C4
:10085000062907D00EE0D4F84462994FC6F3423619
:100860003E6002E01678360704D10678C6F3031618
:10087000032E02D0062906D011E0924E376827F0E9
:10088000807737600EE01678360708D10678C6F311
:100890000316032E06D0042E04D0052E02D00629FE
:1008A0000AD011E04FF08046C6F80C31C6F810317E
:1008B000834E361F336002E01678360704D106787F
:1008C000C6F30316032E02D0062905D00CE07C4F98
:1008D000032664373E600AE01678360704D10678AE
:1008E000C6F30316032E02D006290DD014E0764F6E
:1008F00005263E60744E78363560734E0836336098
:100900003F263F1D3E6002E01678360704D1067888
:10091000C6F30316052E02D0062957D062E06B4EAF
:1009200036686B4F3E60694E361D36683F1D3E602F
:10093000664E083636683F1D3E60644E0C3636689B
:100940003F1D3E60614E103636683F1D3E605F4E73
:10095000143636683F1D3E605C4E183636685C4F74
:1009600020373E60594E1C3636683F1D3E60574E5C
:10097000203636683F1D3E60544E243636683F1D93
:100980003E60524E283636683F1D3E604F4E2C3634
:1009900036683F1D3E604D4E303636684C4F40370E
:1009A0003E604A4E343636683F1D3E60474E38360C
:1009B00036683F1D3E60454E3C3636683F1D3E6002
:1009C000424E403636683F1D3E6002E016783607DC
:1009D00008D10678C6F30316032E06D0042E04D0E1
:1009E000052E02D0062907D019E0D4F85812394A4A
:1009F00001F04F01116002E0117809070FD1007872
:100A0000C0F30310032803D0042801D0052806D121
:100A100031480168C90702D06FF001010160D4F8C4
:100A20003001062808D1D4F83401062804D12B4817
:100A3000016841F48061016022487438016841F422
:100A400070010160BFF34F8FBFF36F8F4FF0102124
:100A5000D1F80002002803DBD1F80402002822DAD2
:100A60001F4A15601F480468002CFCD01524C1F8EB
:100A700000420568002DFCD0C1F80442016800293D
:100A8000FCD0136001680029FCD0BFF34F8F0D48E4
:100A9000F0380168144A01F4E06111430160BFF3CA
:100AA0004F8F00BFFDE7124910480860F0BD0000FD
:100AB000E00F00F0403501400DF0ADBA00C0074036
:100AC0003C050040FCED00E010560040040400101E
:100AD00020C50040E40E0040000400403C170040E8
:100AE00004E5014000E401400400FA050090D00351
:100AF000A00200202DE9F047104E042700244FF4F7
:100B0000A0784FF4803900BF08EB840509FA04F09F
:100B1000715961B1D6F80413014208D02946304614
:100B20001EF0D1FE0648D0E9002128469047641CFB
:100B3000E4B2BC42E8D3BDE8F0870000008000408A
:100B4000E804002001480068004700000C00002075
:100B500002E008C8121F08C1002AFAD17047704786
:100B6000002001E001C1121F002AFBD1704770B5BF
:100B7000044600256FF02F0608E02068411C216024
:100B8000007805EB850106EB4101451820680078E7
:100B900000F004F80028F0D1284670BD303809284C
:100BA00001D80120704700207047000010B5402197
:100BB000074800F0B1FF00221E2106481CF070FF1C
:100BC000054CA06002F006F80020207010BD000067
:100BD0008C1E00207D2C00000801002070B5B1F9AA
:100BE0000030B2F90040A34200DC23460380B1F993
:100BF0000250B2F90240A54200DD2C464480B1F912
:100C00000460B2F90450AE4200DA35468580B1F98D
:100C10000610B2F90620914200DB1146C180012086
:100C2000AB4201DC8C4200DD002070BDF8B50D4602
:100C30000446B0F90000B1F900101646884247DBBF
:100C4000B4F90210B5F90220914241DBB4F9041065
:100C5000B5F9042091423BDCB4F90610B5F9062041
:100C6000914235DC96B3ADF800006088ADF8020023
:100C700032466946284600F099F8002827D0A08817
:100C8000ADF800006088ADF802003246694628469B
:100C900000F08CF800281AD02088ADF80000E08819
:100CA000ADF8020032466946284600F07FF8002879
:100CB0000DD0A088ADF80000E088ADF80200324603
:100CC0006946284600F072F8002800D00120F8BDDF
:100CD0000020F8BDB0F90020B1F904309A4213DCCD
:100CE000B0F90420B1F900309A420DDBB0F90220CE
:100CF000B1F906309A4207DCB0F90600B1F90210EA
:100D0000884201DB0120704700207047F8B50D468E
:100D10000446B0F90400B1F900101646884243DBDE
:100D2000B4F90600B5F9021088423DDBB4F90000C1
:100D3000B5F90410884237DCB4F90210B5F9062081
:100D4000914231DC76B3ADF800006088ADF8020066
:100D500032466946284600F029F818BBA088ADF84D
:100D600000006088ADF8020032466946284600F06F
:100D70001DF8B8B92088ADF80000E088ADF8020091
:100D800032466946284600F011F858B9A088ADF8F7
:100D90000000E088ADF8020032466946284600F0BF
:100DA00005F808B10020F8BD0120F8BD2DE9FC418F
:100DB00014460E46B1F90020B0F9001005468A42EB
:100DC0003ADBB5F90400824236DCB6F90270B5F9B7
:100DD0000220974230DBB5F906309F422CDC002C14
:100DE00075DD401A9A1A401C521C00B212B200EB78
:100DF000D07002EBD27240105210904200DB1046CD
:100E0000844200DD0446ADF800102888002220440A
:100E1000ADF804006888ADF80200688831462044C7
:100E2000ADF806006846FFF7C1FF40B1BDF8040009
:100E30002044ADF804003FE00020BDE8FC81E888D4
:100E40000022001BADF80200E888ADF8060031462C
:100E50006846FFF7ABFF28B1BDF804002044ADF8A9
:100E6000040011E0A8880022001BADF80000A8884B
:100E7000ADF8040031466846FFF798FF50B1BDF861
:100E80000000001BADF80000BDF80200001BADF82B
:100E9000020016E06888ADF802006888002220444D
:100EA000ADF8060031466846FFF780FF70B1BDF827
:100EB0000000001BADF80000BDF806002044ADF8AE
:100EC0000600314668461AF05FF9B6E7FFE70120F1
:100ED000B3E710B5B1F90040B2F900309C4200DA36
:100EE00023460380B1F90240B2F902309C4200DA95
:100EF00023464380B1F90440B2F904309C4200DD3E
:100F000023468380B1F90610B2F90620914200DC35
:100F10001146C18010BD00002DE9F0418AB00546A0
:100F20001CF064FD0026A04C074600960DB1E86851
:100F300001E00FF0A7FF606000691AF0C1F8606877
:100F4000406908B11AF0BCF86068C0691AF0B8F8D6
:100F50006068006A1AF0B4F860680169F1B31AF0C9
:100F600041FB1AF0BDFA6068B0F8501199B30168FE
:100F7000097C890715D50FF0E3FF401E05B26068B4
:100F80000FF098FF401E03B20022114601A8009501
:100F90000DF0D7FD606801A90268926B516004F002
:100FA0000FFC60684FF48071303015F0C3FE60684C
:100FB000202100F5987015F0BDFE6068A0F8506122
:100FC00038461CF00DFD009060680068436A13B15C
:100FD00022680099984715F0EFFC00E007E000F068
:100FE0002FF900F001F9714D6F692FB13FE0A0F8C2
:100FF00050610AB0BDE8F08115F0BDFA14F0D2FBE3
:10100000074600227F2119F093FF0FF049F90146AE
:101010000022384619F07AFF0FF0ADFB014600229E
:10102000384619F0E3FF00220321384619F0D2FFB9
:1010300000220321384619F0BBFF00220321384665
:1010400019F0BCFF00220321384619F0BDFF002231
:101050000321384619F0C4FF55A1384615F00CFAA3
:1010600000231A460621384616F02CFA6F612868CC
:101070001CF0B6FC4FF4967840450CD2206841F243
:101080008831884231D96868009908446860A86846
:10109000401CA86029E01CF0A9FC286060684FF49F
:1010A0007A7140680068B1FBF0F0696809B9012104
:1010B0006960A968F1B14FF47A7251436A68B1FB73
:1010C000F2F46E60AE60844200D904462869204480
:1010D0002861E868401CE8601CF014FDC0F164035E
:1010E000224634A1384615F0FEF92F4D08356C68BC
:1010F00014B137E00446E4E715F03DFA14F052FB72
:10110000044600227F2119F013FF0FF0C9F80146B1
:101110000022204619F0FAFE0FF02DFB01460022B6
:10112000204619F063FF00220321204619F052FFE8
:1011300000220321204619F03BFF00220321204614
:1011400019F03CFF00220321204619F03DFF18A1B1
:10115000204615F091F900231A460421204616F086
:10116000B1F96C6028681CF03BFC40457FF641AF4C
:101170001CF03CFC286002A815F0AEFC0499029813
:10118000401A820A514200EB81206621B0FBF1F344
:101190009DF821109DF82000CDE9000109A120460D
:1011A00015F0A1F925E70000D8000020441E00201A
:1011B0003F0000002575204650530A25752525203F
:1011C0004350550025752E2575206B42207573659B
:1011D0006420282564202525290A256425252066E4
:1011E0007261672E0000000070B50A4D002400BF38
:1011F000C4EBC40655F8260008B115F051FC05EB08
:1012000086001C2115F096FD641CE4B2042CEFD37B
:1012100070BD0000681F0020084949680AE04A685C
:10122000824202D00A68824203D10A7E42F0010261
:101230000A7649690029F2D170470000AC0000200D
:10124000704700000421014800F066BC801E0020A9
:101250001C21014800F060BC981E00202DE9FF5FB2
:101260000446DDE90E0613B9B0F5807F7ED0B6F9ED
:1012700000504FF0FF376D42454307EB25252DB257
:101280002580B6F902C0CCF1000C0CFB00FC07EB8A
:101290002C273FB26780B6F900C0A1EB0C01414397
:1012A0004FF0020C0CEB212109B2A180B6F90280AB
:1012B000A2EB080242430CEB222000B2E080002B9C
:1012C0007ED04FF00A0A93FBFAF5684200EB8000EB
:1012D00003EB400705F1010928B21CF0F5FD009071
:1012E0000FFA89F01CF0F0FD83465A3528B21CF045
:1012F000EBFD804609F15A0000B21CF0E5FD014605
:10130000009AC7F10A0000FB02F300FB08F00BFB98
:10131000073301FB070193FBFAF291FBFAF04FEA66
:10132000601AB4F90010B4F902000AFB01FCCDF810
:101330000CC05511378805FB10C207EBA2220FFA2B
:1013400082F905FB01F2BB46029277880AFB002175
:1013500007EBA1210BB2B4F90410BE460AFB01FC55
:1013600005FB10C20BEBA22216B200E02FE005FB3A
:1013700001F7CDE9007CB4F90680DDF80CC00AFB6A
:10138000007005FB18C1DDF804C0009F05FB18C5FF
:10139000029A0AFB087C0AFB08220BEBA1210EEB48
:1013A000AC270EEBA02009B20EEBA2220BEBA52579
:1013B0000FFA87FC00B212B22DB24F46494500E049
:1013C0000EE000DA0F46B54216DAA84615E0002016
:1013D0002080491E6080A180521EE280BDE8FF9FF0
:1013E00032882A44228072883A44628032881144CA
:1013F000A180718808444FE0B046474504DA4F4663
:10140000494506DA0F4604E0B54201DA2F4600E00E
:10141000374627804F46494500DD0F46B54201DD7E
:10142000A84600E0B046474503DD4D46494505DC8A
:1014300001E0B54201DD294600E03146A1809A4233
:1014400001DA154600E01D46844501DA614600E0F8
:1014500001468D4205DA9A4201DA114606E0194644
:1014600004E0844501DA614600E0014661809A4269
:1014700001DD114600E01946844501DD654600E0C6
:101480000546A94205DD9A4201DD104604E01846F2
:1014900002E0844500DD6046E0809FE72DE9FE4FD5
:1014A0000446D0F800B0B0F90800E589081AB4F98C
:1014B0000A10511AD4E90932B5F5807F38D0A589D0
:1014C000ADB3A66B704345114E437011266BE16AB4
:1014D00006FB05F701FB1077694306FB001003EBE1
:1014E000A72902EBA02080460612B4F904004FEAB7
:1014F0002927B8424EDD002F4CDBB4F90610B1426B
:1015000048DD002E46DB94F834104A0745D58A079B
:1015100004F1140322D400FB067045004FF0020AC8
:101520000BEB05015246184615F0C6FB27E00DE00F
:10153000256BE66A05FB00F706FB1177464305FBC2
:10154000016003EBA70902EBA000CCE7A56B6843A1
:101550004D4303EB601902EB6510C4E700FB067016
:1015600000EB40054FF0030A0BEB05010222184681
:1015700015F0A2FBE81C584410F8010CA07594F873
:101580003400C0071FD04FF4FC60ADF80000A18A02
:10159000814218D10020BDE8FE8F32B204F118005C
:1015A0002369CDE90102002539B2AA468B4612F023
:1015B0009FFF0090BDF80000A082DDE901025946BE
:1015C00012F02EFFDAE7E07C78B1A4F83C90A4F8A2
:1015D0003E80A4F84070A4F84260656484F848A096
:1015E0002046BDE8FE4F00F002B80120D3E72DE908
:1015F000F04F044690F83C10D0F8009090F83E0070
:1016000087B04FF0FF36702907DAB4F9402035462D
:10161000012A00D5002580310DE0902916DDB4F9AE
:101620004020B4F904300125521C9A4200DB002509
:10163000A1F27F114942C9B28846702809DAB4F98B
:101640004210012900D50026803010E00025FF213E
:10165000F2E790280DDDB4F94210B4F90620012616
:10166000491C914200DB0026A0F27F104042C7B225
:1016700001E00026FF2760690090A07D0590002012
:1016800083468246049094F83400400744D594F889
:101690004810606C11FB05014944022201A815F0B5
:1016A0000BFBA08894F8481010FB01F0616C02223B
:1016B00006FB0011494403A815F0FEFAA18894F82E
:1016C000480011FB00F1626C06FB012210FB059043
:1016D0001118022202A815F0EFFA94F834008007DE
:1016E00061D594F84800626C10FB052300EB0901FA
:1016F0000B4413F8013C0493A38813FB00F306FB8F
:101700000322114411F801BC10FB0500111801EB74
:10171000090010F8010C45E0B4F84000B4F942208B
:10172000284401B204F118008146236912F0E0FE5A
:101730000190B4F84200B4F94010304402B254F8B9
:10174000103F484612F0D4FE0390608E2368304468
:1017500002B2208E284401B2484612F0C9FE02901F
:1017600094F82400103C80071DD5B4F9422034F8C9
:10177000400F284401B2484612F052FE049060889F
:10178000B4F90010304402B2484612F049FE8346D4
:101790006088304402B234F84009284401B2484617
:1017A00012F03EFE824694F83400424645468007D9
:1017B00035D5059810FB08F30499C8F1FF0011FB1B
:1017C0000031C1F307211BFB08F61AFB0060C0F3D0
:1017D000072011FB07F3C7F1FF0610FB06331B0AB6
:1017E000A375022907D8022803D8002007B0BDE856
:1017F000F08F002702E0022800D8FF270598022872
:1018000000D800220498022800D8FF22BBF1020F62
:1018100000D80025BAF1020F03D8FF2501E0FF2010
:10182000A075EAB1FF2A04D0DDE900010EF018FF2F
:101830000090BDB1FF2D17D0DDE902102A460EF051
:101840000FFF049097B1FF2F05D001463A4600984C
:101850000EF006FF0090BDF80000A0820120C5E751
:101860000198E5E70298ECE70398EAE7BDF8100075
:10187000F3E700002DE9F0470446B0F908000A2715
:1018800000026062B4F90A000002A062B4F90C1010
:1018900091FBF7F5684200EB800001EB40066842DF
:1018A00005F1010800B21CF00FFB8246E84300B2CC
:1018B0001CF00AFB8146C5F15A0000B21CF004FB83
:1018C0000546C8F15A0000B21CF0FEFAC6F10A0142
:1018D00001FB0AF3024609FB0630694390FBF7F06F
:1018E00002FB061191FBF7F14011E0624811206301
:1018F000A07C12F0AAFE94F8341060F3000184F882
:101900003410A07C12F091FE94F8341060F3410181
:1019100084F83410A07C042824D0052822D006287E
:1019200020D021F0040100BF84F834102168216226
:10193000A16921F0E00160F30401A08860F3942123
:10194000E08860F35F51A161E0894FF4001101EB81
:101950005001B1FBF0F0A063FF20A075208AA082A7
:10196000BDE8F08741F00401DEE700002DE9F04119
:1019700015460E460746114C1CF038F880462B469B
:1019800032463946204613F0E1F920B10020A0622A
:10199000E06950B110E02C21204615F0CBF94FF052
:1019A0000040A0620020BDE8F08140461CF018F81D
:1019B000E06108B90120E0612046F4E7BC1E002088
:1019C00010B51421074800F0A7F813F085F940B1CD
:1019D0000549016005494160054981600549C160CB
:1019E00010BDFEE7A41E002005470100814A01004A
:1019F000F94B0100D14601007FB50E46040003D12A
:101A00000FF040FA040023D00025FEB1ADF80050DD
:101A1000ADF802500FF04EFA401EADF8040020461B
:101A20000FF08EFA401EADF806006A46314602A855
:101A3000FFF7D4F800280BD02068017C890708D56F
:101A4000DDE90001C4E90C0101202AE0A0F85051B1
:101A50007FBD82690AB102A9904700260BE000BF52
:101A600004EBC601002202A83031FFF7DFF800289E
:101A7000EED1761CB6B2B4F85001B042F0D880B2C4
:101A8000202804D204EBC00002A9303004E0A4F8FE
:101A9000505104F1300069460CF0AAFFB4F850012F
:101AA000401CA4F8500160680028D1D01CF0D8F880
:101AB0007FBD70B5054600F012F804460CE02146E3
:101AC000284600F01EF806462146284600F071F828
:101AD000204614F0E5FF3446002CF0D170BD0028FC
:101AE00000D04068704700B503460022FFF7F7FFBB
:101AF00003E01846521C00F004F80100F9D110462A
:101B000000BD0068091D4058704700684058704784
:101B1000002800D08068704700224260C91C21F074
:101B2000030182600160704770B5044600680830A8
:101B300014F02CFF050013D00146002220461DF0B2
:101B4000B9F82946204662681DF0AEF8616819B1FF
:101B50002A4620461DF0AEF86560A06800B9A56071
:101B6000284670BD70B504460068083014F00EFFBA
:101B7000050013D00146002220461DF095F82946A5
:101B80002046A2681DF096F8A16819B12A462046A1
:101B90001DF08AF8A560606800B96560284670BDD0
:101BA00028B1416809B9806808B100207047012058
:101BB000704770B504000DD0FFF791FF00228842F6
:101BC000204608D1FFF79DFF6060011E01D0002272
:101BD0001EE0A26070BDFFF79BFF884220680844AA
:101BE0000AD10168A16029B12046BDE870400022F9
:101BF0001DF05AB8626070BD05682046FFF781FF8E
:101C000006460246294620461DF04EF82A46314631
:101C10002046BDE870401DF04DB810B50446006880
:101C200082680AB12146904720680068002801D0E8
:101C30002060F5E710BD8068002801D0B0F91600DB
:101C4000704700002DE9F047074690B0408C189E81
:101C500040F00400788490463A8499468A46328956
:101C6000384617F0E9FB0546A7F82090328951461F
:101C7000384617F0E1FB0446788CA54220F00400BA
:101C8000788403D12904B1EB044F68D0A7F82080F1
:101C900032895146384617F0CFFB05468046A7F8F3
:101CA0002090514638460BF00FF8318900682A46DB
:101CB0001AF012FE3089602823D147F6FF794D458E
:101CC00001D04C451DD1384617F001FD00EBD07016
:101CD0004510384617F0FBFC00EBD0704010C845AB
:101CE00006D1691C431C994200DA00E01946884677
:101CF0004C4506D1691C421C914201DA6C1C00E083
:101D000014461948FFF710FF05002BD02F60C5E9D6
:101D100003843089A8806846C5F808A00CF080F9D3
:101D20001248FF21CDE9005011480290114803905C
:101D300000200790CDE9080130880A9070889DF84E
:101D40003E1040420B90F0680690002060F30001C6
:101D50008DF83E103069059068460CF0D5F910B04A
:101D6000BDE8F087FEE70000B01E0020B13A020097
:101D70009D3C0200F93B020014210148FFF7CCBE54
:101D8000B01E00202DE9FC5F002592468B460646DA
:101D90002C46042743F60F0843F60E0901E100BF65
:101DA000F06807EBC401405881017CD480B230EA6E
:101DB0000B0113D05FF0000130EA0A0010D00020C0
:101DC000814270D0F06801AA41F6100150F8340049
:101DD00000901AF067FB002866D103E00121EBE7D1
:101DE0000120EDE701AA41F6110100981AF05AFB13
:101DF000002873D101AA41F6120100981AF052FB93
:101E000000286BD101AA41F6130100981AF04AFB91
:101E1000002863D101AA41F6150100981AF042FB8F
:101E200000285BD101AA41F6140100981AF03AFB90
:101E3000D0BB01AA41F2690100981AF033FB98BBAC
:101E400001AA43F20C0100981AF02CFB60BB01AA16
:101E500043F20D0100981AF025FB28BB01AA41F2BC
:101E6000010100981AF01EFBF0B901AA41F2040129
:101E700000981AF017FBB8B901AA41F202010098C4
:101E80001AF010FB80B901AA41F2030100981AF080
:101E900009FB48B901AA41F2050100981AF002FBBA
:101EA00010B901AA01E07BE018E041F206010098B8
:101EB0001AF0F8FA90B901AA41F2320100981AF02A
:101EC000F1FA58B901AA414600981AF0EBFA28B97C
:101ED00001AA494600981AF0E5FA10B10320BDE8BE
:101EE000FC9F01AA40F60A0100981AF0DBFAE8BB51
:101EF00001AA40F60B0100981AF0D4FAB0BB01AA6F
:101F0000414600981AF0CEFA80BB01AA49460098D3
:101F10001AF0C8FA50BB01AA40F63C0100981AF02A
:101F2000C1FA18BB01AA40F63D0100981AF0BAFAAE
:101F3000E0B901AA40F63A0100981AF0B3FAA8B93C
:101F400001AA4FF4046100981AF0ACFA70B901AA22
:101F500040F6450100981AF0A5FA38B901AA40F6F2
:101F6000410100981AF09EFA00B900E014E001AABD
:101F700040F6420100981AF095FA68B901AA40F6B5
:101F8000430100981AF08EFA30B901AA40F64901CF
:101F900000981AF087FA08B1022501E005B9012579
:101FA000641C708CC0F3C500A0423FF6F9AE284611
:101FB00095E700000148406870470000D800002005
:101FC0000549002048600861C86088600860486171
:101FD0000249086048607047441E0020E00000206D
:101FE000C0F30410072800D90720704710B5182146
:101FF0000348FFF791FD03490120087010BD000060
:102000005C1E0020340100202DE9F04190460C4672
:10201000050015D0FEF7ECF90A4F06462146BA68CE
:10202000284690470446BA68281941469047014619
:10203000701A03E06218AA5C2A55641CA042F9D207
:10204000BDE8F081480100202DE9F041094D90469E
:102050000E466A681C46074619469047306020B114
:1020600020686A68384400219047C8F80000BDE83D
:10207000F0810000480100202DE9F04F87B08A462A
:10208000DDE910581F4693460446002105B129801A
:102090005CB12078002809D0BAF1000F05D00026E5
:1020A00018F0060F15D0002004E0002007B0BDE8AE
:1020B000F08F401C215C0A2904D00D2902D0002990
:1020C000F7D100E0401C002DF0D04FF0FF31298007
:1020D000ECE75FEA887001D541F6FF77894608464C
:1020E0008DF81410049127E00498CDF8189068B387
:1020F0004FF0000C05AA06ABCDF80CC0CDF800805F
:10210000CDE9013220443B465A4651461BF006FFBA
:1021100006997A1A314417B20EB288B10499014473
:10212000049120780A280BD00D2809D0605C0A2879
:102130000FD00D280DD00846205C08B1002FD3DC4D
:10214000049848B105B12E800498AFE74FF0010C18
:10215000D0E7481C0490F3E7064A04A920465268D9
:102160009047002DF0D001460022504611F0C9FDE5
:1021700006B2E8E7480100202DE9F04117468846FD
:1021800006001ED0002F1CD0FEF732F90446384658
:10219000FEF72EF9050014D00B4A2C4441469268F4
:1021A00030469047411903E0621BB25C3255641E11
:1021B000A142F9D930442A463946BDE8F04114F02D
:1021C0006FBDBDE8F08100004801002000230278C7
:1021D000232902D0012A0DD00FE02AB10021012AC3
:1021E00004D0022A04D008E0012101E0017004E0DB
:1021F000017001E0202902D0012318467047022116
:10220000F6E72DE9F0410E468046024600213346AE
:1022100008461CF0BFF804460027401C14F0B6FB2B
:10222000050008D02F5533464246611C1CF0B2F819
:102230002846BDE8F081FEE72DE9F0471E4614462A
:102240000D468246DDF8209015E000BF4FEA5408A5
:1022500008FB0657394650464A469047002808DD95
:1022600044F30000C0EB540407EB0605A4F101049D
:1022700001E005DA4446002CE8D12046BDE8F087AD
:102280003846FBE72DE9FC5F9B460CAB8A4681464E
:10229000DDE9116093E81210DDE90F575FEA8078FD
:1022A0004FF030031AD45EB15FEAC07808D000F076
:1022B0000C0858EA0C0803D0761E01E00B55641C8C
:1022C000BC4204D2202CF9D301E00B55641C5FEA18
:1022D000C07803D0B44201D2202CF6D35FEAC068A4
:1022E00025D55FEA40580AD44CB1BC4201D0B44273
:1022F00005D1641E03D0102D03D1641E04E0102DFF
:1023000002D0022D0AD00EE0850603D4202C1ED266
:10231000782506E0202C1AD2582502E0202C16D26F
:1023200062250D55641C202C11D20B55641C202CE9
:102330000DD2BCF1000F01D02D2306E0430701D5DB
:102340002B2302E0030702D520230B55641CCDE9A3
:1023500000BAC846154681468B46AA46800714D166
:10236000274607E02A46DDE900316D1C2020C446DF
:10237000E0477F1CB742F5D307E02A466D1C641E78
:10238000DDE900311BF80400C047002CF5D15FEAFD
:10239000897006D409E02A46DDE900316D1C202051
:1023A000C047A5EB0A00B042F5D32846BDE8FC9F24
:1023B0002DE9F04F8FB099468B46DDE91818DDE91D
:1023C0001C63DDE91A4792468646002209B923F0CC
:1023D0001003580507AD00D5C9B1B1FBF4F004FBFB
:1023E0001010C0B20A2801D2303009E05FEA836CD5
:1023F00002D54FF0410C01E04FF0610C60440A3807
:10240000B1FBF4F1A854521C09B1202AE5D3CDF850
:102410000880CDE90563CDE90052CDE903474B467D
:10242000524659467046FFF72DFF0FB0BDE8F08FBA
:102430002DE9FF4F8FB01CACDDE9239594E803082C
:1024400020AC94E8C004002450EA010201D125F038
:1024500010056A050DF11C0802D550EA010217D0DB
:1024600032463B46FDF75CFFD2B20A2A01D2303237
:1024700006E0AB0601D5412300E061231A440A3A85
:1024800008F80420641C50EA010201D0202CE7D394
:10249000CDE90084CDF808B0CDE90595CDE9036A12
:1024A0000FAF97E80F00FFF7EDFE13B0BDE8F08F18
:1024B0009A4200D288547047704700002DE9FF4FC0
:1024C00089B005460A9800249246002800D1FE4DA6
:1024D0008FE1252804D02246641C53460A990BE25A
:1024E000491C4FF0000808460C9101782B2919D09F
:1024F00004DC202919D0232904D119E02D290ED07C
:10250000302909D00026C8B2FEF748FBB0B10CA8AC
:10251000FEF72DFB06461FE048F001010AE048F0F7
:10252000020107E048F0040104E048F0080101E07E
:1025300048F01001401C88460C90D6E70C990878AA
:102540002A2809D1169840C81690002E02DA48F0C1
:1025500002087642491C0C910C984FF0000B017850
:102560002E2919D1401C0C9048F480680078FEF7A1
:1025700015FB20B10CA8FEF7FAFA83460CE00C9A82
:1025800010782A2808D1169802C81690002900DC75
:102590000021521C8B460C920C9801786C290AD0B1
:1025A00004DC68290FD06A2919D128E0742929D0C0
:1025B0007A2914D126E0401C0C90017848F48078E8
:1025C0006C291CD00BE0401C0C90017848F080086E
:1025D000682904D148F04001401C88460C9002460E
:1025E0000078692822D015DC62281FD00DDC252850
:1025F00071D050281AD058287FF46DAF16E048F4F7
:102600000071E9E748F48071E6E7632878D0642830
:10261000F2D10BE0732874D004DC6F2806D0702848
:10262000EAD103E0752801D07828E5D178280DD0CB
:1026300058280BD070280BD0502809D06F2816D0FE
:10264000622816D00A2128F0100016E0102107E0B9
:102650005078102148F48878562804D1521C0C92E6
:102660001078582807D01078502804D006E00821A8
:1026700009E0022107E048F0200080461078692830
:1026800003D0642801D028F00C085FEA485001D537
:1026900028F00108107869281ED064281CD056281C
:1026A00064D05FEA885072D5169804ABC01D002232
:1026B00083E806080292CDE9076820F00700534638
:1026C000F0E80212CDE900121690224628460A9937
:1026D000FFF7AEFE89E00AE15FEA885024D516983C
:1026E00004AFC01D20F00703F3E802021693002395
:1026F00087E80A08CDE90768002A03DA012102E029
:1027000080E0A6E000210023029119461B1A9141A6
:1027100001DA114603E00021404261EB0201534619
:102720002246CDE90001D1E75FEAC85004D51698EA
:1027300004C80FE0524215E05FEA486003D51698DE
:1027400010F8042B06E05FEA0860F0D5169830F820
:10275000042B12B21690CDE9021BCDE90468D00F0C
:10276000002AE7DDCDE9002053461EE01698AAEBCB
:10277000040202C816904868006800900A980B6826
:1027800001192846FFF79AFE04442FE0FFE75FEAAD
:10279000C8500CD5CDE9021BCDE90468169800217C
:1027A000534604C8CDE900211690224619E05FEA9D
:1027B000486003D5169810F8042B08E05FEA08601B
:1027C000169803D530F8042B92B200E004C8169096
:1027D0000020CDE90020CDE9021BCDE90468534675
:1027E000224628460A99FFF7E3FD04460C98401C50
:1027F0000C900C99087800287FF46BAE54457DD27C
:1028000022467DE001275FEA887006D509E022466E
:10281000641C534620200A99A84738467F1CB042C2
:10282000F5D316992246641C11F8040B16915346F1
:102830000A99A8475FEA887006D4D7E72246641C45
:10284000534620200A99A84738467F1CB042F5D34A
:10285000CCE7169850F8049B16904B46BBF100004D
:1028600001D0014601E04FF0FF31484600E0401C36
:1028700002780AB1491EFAD2C71A5FEA485003D556
:1028800058465F4500D307465FEA887006D512E0D8
:102890002246641C534620200A99A84738467F1CCC
:1028A000B042F5D307E000BF224609F10109641CDC
:1028B00053460A99A84799F8000040B15FEA485189
:1028C000F2D5BBF1010B01E0B9240000ECD25FEAC4
:1028D000887006D48AE72246641C534620200A9951
:1028E000A84738467F1CB042F5D37FE706E0224672
:1028F000641C534625200A99A84777E7AAF10102EC
:10290000534600200A99A8470DB02046BDE8F08F35
:1029100010B502004FF000000CD04B1E194200D041
:10292000FEE70A44521E9A43B2F5804F02D20C2AA7
:1029300001D9104610BD0C2010BD08444A1E401E8F
:102940009043114200D0FEE7704700002DE9F041AE
:102950000F4601210025044641862E460BE01B4907
:10296000FDF74DFD10B16D1CADB202E0608E401C54
:102970006086761CB6B257F8260010B1017800299F
:10298000EDD1208EA8421ED0A06A002610B114F00E
:1029900087F8A662E06A10B114F082F8E662E800F7
:1029A00013F0F4FFA06238B1680013F0EFFFE062AB
:1029B00018B1A16A11B102E0FEE7FEE70025690047
:1029C00014F0B8F92586BDE8F0810000B0F30000EE
:1029D0002DE9F84F8146407A0F4600F007000228A3
:1029E00019D010468046974200DD3A46164603202D
:1029F0002A4C2B4A00EB460020F00305A068116822
:102A00001035411A636805EB010C9C4505D24168FD
:102A100021F0004124E00846E4E79D4219D892469F
:102A20004FF0FF3B48196168884210D9002269467F
:102A30001C48CDF800B00AF0D5FF002269461A48BC
:102A40000AF0D0FFA168DAF80000091AEAE7A068E6
:102A5000DDE7284613F09AFFC0B1416841F000411C
:102A600088EA6702416089EA02010160416801F079
:102A70004041491C31F0804141608681A0F80E80C0
:102A800005D500F110018160BDE8F88FFEE7A1686F
:102A900001F1100229448260A160F5E78401002061
:102AA0002401002025BA000045DA000070B586B088
:102AB00000228DF808208DF80C208DF81020444C51
:102AC00090F83C20142302F00302A5784FF4B4766A
:102AD000012A23D0022A5FD0AA4211D010F8265F23
:102AE00005EB051505EB4505B5FBF3F525704078BD
:102AF00000EB001000EB4000B0FBF3F06070A27040
:102B000004AA03A8CDE9000201EB41004FF6FF71D2
:102B100001EA400002AB627821781AE0AA4210D0A4
:102B2000858C05EB45056D02B5FBF6F5A58090F8A3
:102B3000270000EB001000EB4000B0FBF3F06070EA
:102B4000A27004AA03A8CDE90002C9B202AB627860
:102B50003CE008F067FC9DF810209DF80C10D308AD
:102B6000BDF800209DF8080063F30402ADF80020D2
:102B70008A08BDF8001062F34A11ADF80010C108D0
:102B8000BDF8000061F3CF20ADF8000080B20090E6
:102B9000BDF8000006B070BDAA4210D0858C05EBD0
:102BA00045056D02B5FBF6F5A58090F8260000EB13
:102BB000001000EB4000B0FBF3F02070A27004AAFC
:102BC00003A8CDE90002CAB2217802ABA088C0E711
:102BD0003402002010B5084C012020700748FEF791
:102BE0007EFF0028A06803D0BDE810401BF038B875
:102BF000BDE810401BF028B8080100208C1E002002
:102C000010B5044690F83E00626B810707D4A18F8F
:102C100039B1A1F57F43FF3B15D0491EA187A18F94
:102C200089B90AB181070ED521461348FEF7C1FFC5
:102C3000FFF7D0FFE16809B1204688472046BDE88C
:102C4000104013F02DBFA16B4942E162002A11D060
:102C5000810702D4216B4942E1624110491C61F3B2
:102C6000410084F83E00616AE069E1616062A06A47
:102C7000A262606310BD00008C1E002070B5304D54
:102C800068681AF0ADFE0646687880F0010068704A
:102C900047E00020287094F83E006978C0F3800275
:102CA0008A4242D061F3820084F83E00E16A8A19C8
:102CB000030719D4002917DC002A15DBC00709D146
:102CC000216939B120468847E1690144E161616ABF
:102CD00008446062A16809B12046884794F83E0024
:102CE00040F0080084F83E00E06A8019E06216D4E3
:102CF000A16A884200DDE162A16920468847014659
:102D0000206A884204D0216262680AB12068904734
:102D1000D4E90A01814202DB2046FFF771FF2878DF
:102D200018B10848FEF7DBFE03E021460548FEF730
:102D3000E8FE0400ADD11AF059FE686070BD0000D5
:102D4000080100208C1E002010B572B61CF0BEFCDD
:102D50001CF036FB0028FBD111481249401AC40868
:102D6000012000EB044010A11CF03EFC114800685B
:102D7000C00700D000BE022000EB04400EA11CF0F2
:102D800033FCBFF34F8F0B48E43801680E4A01F45F
:102D9000E06111430160BFF34F8F00BFFDE700000A
:102DA000688E0200208E0200466174616C2065729C
:102DB000726F7200F0ED00E053797374656D2072EC
:102DC00065736574000000000400FA050EB500216B
:102DD0000091CDE901106A4644F20100FFF7B4FF0B
:102DE0000EBD10B58268C368934203D008F055FB4E
:102DF000002010BD052010BD29B112B1531E134291
:102E000003D0092070470E207047016083800021A5
:102E10008160C1600846704710B58268C3689A1A1D
:102E200083889A4203D808F042FB002010BD04209A
:102E300010BD000070B50A4E01460A48B578FFF78C
:102E4000D0FF04464DB10020B070711C0122C81D96
:102E50001CF01AF808B1FFF7B9FF204670BD00005A
:102E600020000020CC050020F0B5244E89B01F467C
:102E70000D00044672603FD0A888296882B22048BD
:102E8000FFF7BAFF002835D1A889A96882B21C488B
:102E90001030FFF7B1FF00282CD1202219496846D5
:102EA000FDF774FA60690690207C00B101208DF86E
:102EB00014008DF81C70607C00B10E208DF8150098
:102EC000E0680290A068039020680190606800901C
:102ED0000A480D4A694608301BF0A2FF002809D1B4
:102EE000B0702068401C05D004490122491CC81D4F
:102EF0001BF0CAFF09B0F0BD0720FBE7200000204F
:102F0000CC0500203C460200E53D020000F002B87E
:102F100000F008B872B602480168491C01607047A9
:102F20001C00002003490868401E086000D162B6FA
:102F3000704700001C0000202DE9F041064608689B
:102F40000C46411C4FF0A0474FF0010506D005FA92
:102F500000F1C7F8081520681CF028F96068411CCA
:102F600002D000211CF010F93168A069C1F82405D5
:102F7000607D227D31681043C1F86C05D4E90012F0
:102F80003068C0F81425C0F80C15207D012815D133
:102F9000A068411C02D000211CF0F6F8E068411C3A
:102FA00005D08540C7F80855E0681CF0FFF8D4E963
:102FB00002123068C0F80825C0F81015BDE8F0818D
:102FC0002DE9F041064608680C46411C4FF0A04729
:102FD0004FF0010506D005FA00F1C7F80815206882
:102FE0001CF0EEF86068411C02D000211CF0D5F8FE
:102FF0003168A069C1F82405607D217D32680843ED
:10300000C2F86C05D4E900123068C0F80C15C0F89D
:103010001425207D012815D1A068411C02D0002173
:103020001CF0BBF8E068411C05D08540C7F8085586
:10303000E0681CF0C5F8D4E902123068C0F8082531
:10304000C0F81015BDE8F08170B5044640680D4623
:1030500008B1FFF7F9FF2268002A04D0294620466C
:10306000BDE87040104770BD89B20BF026BC89B234
:103070000BF05FBC10B50446406882080AD049686E
:1030800021F00301091D08446060204600F042F869
:10309000204610BDFEE74068103120F00300884252
:1030A00001D301207047002070472DE9FC470546F9
:1030B00048680C4620F0030001AA69461BF046FC54
:1030C000DDE9007005EBC71101EB80098046D9F8F6
:1030D000340060B164B1C4E9020504F10806C460BB
:1030E00030460421FFF729FC864202D0FEE7FEE7C6
:1030F000FEE7C9F834400120296900FA07F21143BC
:10310000296105EB870100FA08F04A6902434A6128
:10311000BDE8FC8710B5044600F087F8046010BDD8
:103120002DE9FC4706464FF000000D0000900746D1
:10313000019042D00C46E9460DF10408802907D3DE
:10314000084620F0AEFC411F01208840401E044488
:103150004246494620461BF0F9FB009C082C2CDA1D
:1031600006EB8400019A40694FF0FF3101FA02F248
:1031700010400CD1641C3069A14008401DD020F0E3
:1031800088FC0446009006EB8000406978B120F08E
:1031900080FC034606EBC411019001EB8000476BF5
:1031A0005FB1786820F00300A84201D2FEE7FEE795
:1031B00039463046009A1DF013FD3846BDE8FC87BD
:1031C00010B50446FFF7A6FF416841F002014160D7
:1031D000606840F00100606010BD10B5044600F06A
:1031E00024F8416821F002014160606820F001008C
:1031F000606010BD70B506460D46084600F015F833
:10320000040010D02079C0070BD0686880080BD06C
:103210002146304600F03CF821462846FFF72AFFB9
:103220000546284670BDFEE7FEE7426800F108014A
:1032300022F00300001F0844910800D1FEE7704708
:1032400070B506460C004FF000001ED0F2B1207998
:103250001546C0071BD011462046FFF71CFF78B16A
:103260002946204600F025F805462046FFF752FF84
:103270006868294640F0020068603046FFF715FF95
:103280002046FFF7AAFF04F1080070BDFEE7FEE745
:103290007CB5054648680C4620F0030001AA694643
:1032A0001BF054FBDDE90023214628461DF098FC65
:1032B0007CBD2DE9F0410D46044600F10801281FB0
:1032C0000E18606806F1080720F00300401BA0F10B
:1032D000040838460421FFF730FB874200D0FEE7A0
:1032E000606820F0030108EB0500001D814200D05A
:1032F000FEE7307900F0030040EA0800706020F03B
:1033000003000C2800D2FEE7207900F003002843D8
:1033100060603046FFF754FF3046BDE8F0810000A2
:103320002DE9FC410646C0074FF000050ED0104FB6
:1033300000240122385D00950023114601951BF001
:10334000C9FE641C042CF4D300F01CF8B0070DD5A2
:10335000074E0024361D0022305D032300951146E0
:1033600001951BF0B7FE641C042CF4D3BDE8FC816E
:10337000B04502000249085C01211BF054BF000067
:10338000B045020010B500242046FFF7F3FF641C8F
:10339000042CF9D310BD38B5044611F059FF054689
:1033A00011F08BFF0028204605D0218FE18616F012
:1033B00071FC012038BD10F045F9002820461ED0D0
:1033C00010F015F8218FE08E81420CD02087E08E1E
:1033D00000906A461C21204610F06EFB0128E9D1BE
:1033E000204616F057FC284611F073FF0428E0D160
:1033F000204615F08FF8002110F0F0FFD9E710F00B
:103400007DF9D6E770B510F052FB054615F0C8F807
:10341000044628460CF086F801462046BDE8704078
:10342000012219F009BE00002DE9F0470546861C6F
:1034300090460F464FF001090020FFF767FD1B4C37
:1034400020683860D4E90001401AA16804F21C47E2
:10345000081A0EE0012138461BF037FC0AF04EFD39
:10346000014638461BF031FCD4E90001401AA1683E
:10347000081A401C8642EDD8B8F1000F03D0052091
:1034800065F3891002E0062065F39F50A268216869
:10349000114004EB8101C8602068304420600020A6
:1034A000FFF736FD4846BDE8F0870000EC06002037
:1034B00030B482680468531C8360A154D0E90112BF
:1034C0008A4202D330BC1BF00CBD30BC70470000F8
:1034D000034803C8814201D1012070470020704792
:1034E000EC0600202DE9F04F0D4687B00446002180
:1034F00014F045FF60B32946204600F061FA2946E2
:10350000204600F06FF80021204615F076FE059069
:103510000021204615F02EFF04900021204615F0D2
:103520003FFD012800D0002080460021204616F0F3
:10353000B2F807460021204615F0A2FD42F2D179EB
:1035400006464F450BD1608C400508D4012707E0A3
:1035500007B02846BDE8F04F1C2113F0EBBB002755
:10356000204614F08AFFDFF878A083462046002129
:10357000BAF8022015F060FFD5F810C0AB682968D2
:10358000CDF800C0CDF80C80CDE90131C2B239468A
:103590005846059B09F00AFC28834E4504D1608CEF
:1035A000800501D4012600E00026204614F04BFFE0
:1035B000074620460021BAF8062015F03DFFC2B2AA
:1035C000686900246B68E9688DE81B00314638465D
:1035D000049B09F0EBFB688307B0BDE8F08F0000A7
:1035E000A80100202DE9F34F81B00C46019808F0A6
:1035F00049FE0646019814F040FF8246304601F02D
:103600000DF82061400013F0EDF9206020694000C2
:1036100013F0E8F9002541F69A79A0603AE036F90E
:103620001510DFF82081494533D10027DFF818B1A4
:103630001FE03946019814F0A2FE5946009016F09A
:1036400096F8A8B9009808F02FFE012810D100982C
:1036500008F020FEA8420BD1009816F038F8414639
:10366000404501DA084602E0009816F030F880463E
:103670007F1C019814F095FEB842DAD8B8F1000F1B
:1036800003DBA16821F8158003E0A168002021F880
:1036900015006D1C2069A842C1D800252F46284678
:1036A00041F69B784B4615E036F91010414504DB96
:1036B0000D44A5F5F8559B3D0BE0994204D1A16856
:1036C00031F81010394403E0A26822F81010394490
:1036D0000FB2401C21698142E6D80021019815F003
:1036E0008CFD2169C1F1010200FB02A0C01B00B2E8
:1036F000002800DA002000224FF0FF331146C446B4
:1037000011E000BF36F9117067450BDBA7F5F857DC
:103710009B3F3AB210FB02F3B3FBF5F3A76827F81F
:1037200011300B46491C27698F42EBD8002B07DB71
:10373000A91A4143B1FBF5F1401AA16821F8130021
:10374000BDE8FE8F01E0FFFF010006002DE9F14F0B
:1037500000221146009817F069F90021009815F031
:1037600045FC04460021009815F00BFE20440FFA9A
:1037700080F90021009815F0DEFC20440FFA80F853
:10378000009815F0A5FB00EB090101EB0800DFF83C
:1037900098A006B25446009814F003FE0746002590
:1037A0002AE0009821498068006850F82500834687
:1037B00015F0DDFFF8B9584616F0CEFA40BB0021EF
:1037C000584615F0AAFB18B3012821D002281FD0B3
:1037D00003281DD00021584615F072FF58B9BBF8D8
:1037E0001A10BBF81600081A401C00B24844A04248
:1037F00000DB044624B26D1CBD42D2D3544504D034
:1038000004EB080000B2B04200DC3046BDE8F88F9F
:103810000098BBF91A10B0F91600081A411CA14211
:10382000E8DB0C46E6E7000001E0FFFF01000400D2
:103830002DE9F84F00228046114617F0E1F80021EB
:10384000404615F0D3FB04460021404615F037FDF5
:1038500020440FFA80FA0021404615F0DCFC204499
:103860000FFA80F9404615F041FB00EB090101EB2E
:103870000A00DFF844B105B25C46404614F091FD01
:1038800007460021404615F068FB01284FF000066E
:1038900044D078E0D8F808004849006850F826007D
:1038A000009015F064FFC0BB009816F055FA50B1B7
:1038B0000098B8F91810B0F91400091A481CA04271
:1038C0002ADB4C1C28E00021009815F026FB58B19B
:1038D000032809D0062807D0082805D00021009821
:1038E00015F0E7FE58B118E00098B8F91810B0F9D3
:1038F0001400081A411CA1420EDB0C460CE0009893
:10390000143000900BF0E5F85044A04204DB00981E
:103910000BF0DFF800EB0A0424B2761CBE42B9D3E8
:103920005C453BD004EB090033E000BFD8F8080049
:103930002249006850F82600009015F018FF08BBD7
:10394000009816F009FA60BB0021009815F0E5FA1E
:1039500038B3012825D0042823D0072821D00021FE
:10396000009815F0ADFE68B90098143000900BF087
:10397000B0F84844A04204DB00980BF0AAF800EB32
:10398000090424B2761CBE42D0D35C4506D004EBB9
:103990000A0000B2584501D0A84200DC2846BDE824
:1039A000F88F0098B0F91810B8F91400091A481CDB
:1039B000A042E6DB4C1CE4E701E0FFFF010004004D
:1039C0002DE9F84F0C46834609F07CF8064600F0D6
:1039D00025FE6061400013F005F8606060694000FA
:1039E00013F000F8002541F69A79E0603AE036F9E4
:1039F0001500DFF80C81484533D10027DFF804A11A
:103A00001FE03946584614F0BAFC5146009015F0B4
:103A1000AEFEA8B9009809F0DBF8012810D1009893
:103A200009F0CCF8A8420BD1009814F078FD41467B
:103A3000404501DA084602E0009814F070FD804627
:103A40007F1C584614F0ADFCB842DAD8B8F1000F2C
:103A500003DBE16821F8158003E0E168002021F82C
:103A600015006D1C6069A842C1D800273D46384644
:103A700041F69B784A4615E036F91010414504DBC3
:103A80000F44A7F5F8579B3F0BE0914204D1E16842
:103A900031F81010294403E0E36823F8101029449A
:103AA0000DB2401C61698142E6D80021584615F0EC
:103AB00061FC8146584614F0C6FC01466069C0F1BD
:103AC000010209FB0210401B02B2002A00DA0022A8
:103AD000002043460FE000BF36F91010994209DB81
:103AE000A1F5F8519B3912FB01F1B1FBF7F1E56843
:103AF00025F81010401C61698142EDD8BDE8F88FAF
:103B000001E0FFFF010006001CB50B880489234477
:103B1000ADF800304B8844892344ADF802308B88DF
:103B200004892344ADF80430C98843891944ADF8A9
:103B300006104369694698471CBD000002490844C5
:103B400090F924007047000044050020F8B50D46A8
:103B5000D0E90C2104468AB112787AB141B100BF94
:103B600019F06BFD0D4909688847616B884211D2D5
:103B7000206B88B100200A4E009006E061B1EFE7AB
:103B8000326869469047A84206D0206B0099415C94
:103B90000029F5D10020F8BD0120F8BD600100200A
:103BA0004C0100202DE9FF4F87B0C878189CC00752
:103BB0000D46002801D0F14800E0F148069001D000
:103BC000F04800E0F048049001D1EE4800E0EE48F3
:103BD0004FF0100A4FF00C0ECDF814006088A18849
:103BE0004FF0000BA0EB010001B25A46584627697E
:103BF00012E000BF00EB8006E3680AEB860C13F8C6
:103C00000CC05FEACC7C0BD04FF0080C0CEB8606A6
:103C10009B5BC91A09B2401C8742EBD8002347E0DE
:103C20000EEB86069B5B1A4412B2F4E703EB8306A5
:103C3000E7680AEB86000190385CC00737D191FB3A
:103C4000F2F00EEB860CCDF800C037F80CC00CFB80
:103C500000FC0FFA8CF94FF0060C04200CEB860CDC
:103C600000EB860037F90C80385ECC46C84500DC96
:103C7000C446604504DC4046CC46C84500DD60468D
:103C8000484506D0DDF804804FF0010CE34647F8C4
:103C900008C0D4F80CC0082707EB86062CF80600ED
:103CA000E768009EBE5B921B081A12B201B25B1C51
:103CB00020699842BAD8BBF1000F8FD10021079834
:103CC00015F067F9012826D000270020ADF808007C
:103CD000ADF80C0003A902A8CDE900012089B4F9D0
:103CE000022003B2287816991CF011FBE8783842BC
:103CF00007D0079814F0C1FBBDF808100844ADF8D0
:103D000008000999079814F03AFB06464FF4FA6840
:103D10004FF0640B27E10127D7E79C49304615F0A7
:103D200026FD00287DD10021304615F091F9E8B339
:103D30004FF000094846216911E000BFE26800EB3E
:103D4000800352F82320B24208D100EB8002E168E0
:103D5000082000EB820031F9009002E0401C814213
:103D6000ECD8E878C007708C02D040F4806001E0A5
:103D700040F40070708406F114000499824688476C
:103D8000484528D0304615F085FFB08AADF80000D0
:103D9000F08AADF80200308BADF80400708BADF8FE
:103DA0000600069A49465046904700E00FE06A46F2
:103DB000292130460FF080FE304614F0F1FB3246E8
:103DC00022210FF079FE304615F064FF03E0708C7D
:103DD00020F4C0607084002000906878012810D022
:103DE000022816D1059906F114008847B4F900108D
:103DF000491C21F00101081A00EBD07040F34F007C
:103E000006E0059906F1140088472188081A00B2D7
:103E10000090E87838420AD0049906F114008847E7
:103E200000E098E0BDF80810081AADF80800304628
:103E3000002143F20C0215F0FFFA0FFA80F9304628
:103E4000002143F20D0215F0F7FA0FFA80FA30461E
:103E500015F03DFC0190304614F061FB0146C9F3BA
:103E6000413001280ED129F4C04040450ADCB0F5AC
:103E70007A7F01DDC0F57A70019A504390FBFBF028
:103E80000FFA80F9CAF3413001280DD12AF4C0405D
:103E9000404509DCB0F57A7F01DDC0F57A70484312
:103EA00090FBFBF00FFA80FAB18A1498F28A411A5B
:103EB00001EB0900159900B28A1A02EB0A01EA78AF
:103EC00009B2D207002A02D0BDF9082000E0009A0A
:103ED00010440FFA80FA01D0009801E0BDF9080003
:103EE00008440FFA80F95AEA09001BD0304615F051
:103EF000D1FEB18A01EB0A00B082318B01EB0A00DE
:103F00003083F18A01EB0900F082718B01EB09002B
:103F10007083304615F0BEFE01234A4651463046B6
:103F200015F068FFE87838420CD1049906F11400C6
:103F3000884717990844BDF80C100844BDF80810CC
:103F4000084406E0BDF80C1017980844BDF80810A6
:103F5000081AADF80800E87809AAC0F380010798AC
:103F600008F07CFC0646002E04D0DDE909018842F9
:103F70007FF4D3AE0BB0BDE8F08F00005BEB000028
:103F800051EB000003EB0000ABEA0000010006006B
:103F90002DE9F04F91B00E0005463FD02E832868E2
:103FA00008B112F07DFD06EB4600062101EB400052
:103FB00012F0ECFC286040B3022101EB4601014401
:103FC000E960042101EB86010144C5E901010121F9
:103FD0000024012E1AD0F000083012F003FD8146B3
:103FE00000EB860000F10408B00000B2A346ADF873
:103FF0001000C0F101028010ADF812B00FFA82FA81
:104000005C46CDF828B00690ABE0FEE7B422027023
:10401000E8680480E8684180A868048011B0BDE8C1
:10402000F08F0027BDF81220BAF1000F07DC032142
:1040300001EB42010AEB01000FFA80FA0CE0BDF837
:1040400010100523521A03EB420202EB0A00491E2C
:104050000FFA80FAADF81010BDF81200401CADF850
:10406000120004A800F0E9F868B1BDF9100006A933
:10407000821041F827200AA900F0030041F8270028
:104080007F1C042FCEDB042F71D10999069888423A
:1040900012D129F8140028F814B0DDE90A0101440E
:1040A000DDE90C201044084469680855696800017E
:1040B0000855641C24B252E00799884219D029F8A7
:1040C000140028F814B06A680A9810556A6800014C
:1040D0001055641C069A20B2521E29F8102028F8A8
:1040E00010B0DDE90B120A440D99091D11446A68EC
:1040F0002FE0089929F81400884228F814B0DDE967
:104100000A025946104412D06A6810556A680001C4
:104110001055641C069A20B2521E29F8102028F867
:104120001010DDE90C12114408316A6811E00C9A94
:1041300010446A6810556A6800011055641C069A9C
:1041400020B2521E29F8102028F810100D996A6824
:104150000C3111546A6809011154401C04B20BF16E
:10416000010B04A800F069F800287FF45AAF40F270
:10417000D32016FB00F109EB4402881232F9022C1D
:10418000824205D108EB440232F9022C82421AD055
:10419000A1EB8021B1F5007F03DC494341F3CF312E
:1041A00006E0C1F58061494341F3CF31C1F10F0110
:1041B00029F8140028F81400686801556868090196
:1041C0000155641C24B2A01E0EE000BF38F8102078
:1041D00029F8142039F8102028F8142069680A5C9E
:1041E0000A55641C24B2401E0028EFDAEA68002158
:1041F000084611801BE0EA6822F81100AB6839F824
:10420000102023F811200AE0AE6839F9102036F8A2
:104210001130934200DA1A4626F81120401C38F972
:1042200010208A4201D1A042EEDB491C09B2A04213
:10423000E1DB484612F022FCF0E6B0F90210B0F9DA
:104240000000814201DC012070470020704717B553
:1042500081B0022A03D8BDF8080004B010BDBDF833
:104260000830BDF80400D90A01EBD0211F2900D382
:104270001F2161F3CF20C3F34511C0F3451421443E
:10428000ADF804003F2900D33F2161F34A1003F049
:104290001F0100F01F031944ADF804001F2900D3CB
:1042A0001F2161F30400ADF80400FF2A07D0DDE907
:1042B00001010CF0EFF90090BDF80000CDE780B2ED
:1042C000CBE717B581B0022A03D8BDF8080004B0C7
:1042D00010BDBDF80400BDF80810C30ACC0A13FBDA
:1042E00004F35B0963F3CF2000F01F0301F01F0408
:1042F00013FB04F35B0963F30400C0F34513C1F33C
:10430000451113FB01F1890961F34A10ADF804006E
:10431000FF2A07D0DDE901010CF0BCF90090BDF8DF
:104320000000D4E780B2D2E717B581B0022A03D8E3
:10433000BDF8080004B010BDBDF80830BDF8040099
:10434000D90AA1EBD021002900DC002161F3CF20A4
:10435000C3F34511C0F34514091BADF8040000294F
:1043600000DC002161F34A1003F01F0100F01F037D
:10437000C91AADF80400002900DC002161F3040033
:10438000ADF80400FF2A07D0DDE901010CF082F945
:104390000090BDF80000CDE780B2CBE710B501205A
:1043A00020F0C6F878201AF0F3FC282020F0C0F89E
:1043B00078201AF0EDFCCF2020F0BAF8002020F091
:1043C000C3F8C12020F0C0F8302020F0BDF8E8206C
:1043D00020F0AEF8852020F0B7F8002020F0B4F8E7
:1043E000782020F0B1F8CB2020F0A2F8392020F07E
:1043F000ABF82C2020F0A8F8002020F0A5F83420FD
:1044000020F0A2F8022020F09FF8F72020F090F88A
:10441000202020F099F8EA2020F08AF8002020F0EF
:1044200093F8002020F090F8C02020F081F823209D
:1044300020F08AF8C12020F07BF8102020F084F8CA
:10444000C52020F075F83E2020F07EF8282020F0CE
:104450007BF8C72020F06CF8862020F075F8362015
:1044600020F066F8482020F06FF83A2020F060F83D
:10447000552020F069F8B12020F05AF8002020F0F3
:1044800063F8182020F060F8B62020F051F80820DA
:1044900020F05AF8822020F057F8272020F054F816
:1044A000F22020F045F8002020F04EF8262020F0E1
:1044B0003FF8012020F048F8E02020F039F80F20E4
:1044C00020F042F8312020F03FF82B2020F03CF87B
:1044D0000C2020F039F80E2020F036F8082020F0CB
:1044E00033F84E2020F030F8F12020F02DF837205E
:1044F00020F02AF8072020F027F8102020F024F8D8
:10450000032020F021F80E2020F01EF8092020F0D2
:104510001BF8002020F018F8E12020F009F8002016
:1045200020F012F80E2020F00FF8142020F00CF8E4
:10453000032020F009F8112020F006F8072020F0D1
:1045400003F8312020F000F8C1201FF0FDFF4820C3
:104550001FF0FAFF08201FF0F7FF0F201FF0F4FFF5
:104560000C201FF0F1FF31201FF0EEFF36201FF06E
:10457000EBFF0F201FF0E8FF11201FF0D9FF78207C
:104580001AF006FCBDE8104029201FF0D1BF000042
:10459000F8B504460FF08BFA064620460FF049FAAC
:1045A0000546304613F0FCFF04462B2D2AD00A2D79
:1045B00027D16946304614F059F8304613F05DFFB4
:1045C00005460021204614F0F2FC0128BDF9000048
:1045D00005EBD5711CD000EB610000BF90FBF5F03E
:1045E00001B2002900DA0021608D4FF001028842FB
:1045F000204610D018F020FD00221C2120460FF08C
:104600005BFAF8BD618DBDE8F840002218F014BDDA
:10461000C0EB6100E2E718F00FFDF8BD0146002095
:1046200041F6FF7200E0401C31F910309342FAD19C
:1046300070471CB5044690F8500000F00100884215
:104640002DD094F8500011B140F0010001E020F0AD
:10465000010084F8500004F1440168460AF0F5F9BD
:10466000606ABDF80010828A1144ADF80010BDF8F0
:104670000210C08A0844ADF80200606ABDF8041058
:10468000808A0844ADF80400606ABDF80610C08A4C
:104690000844ADF806006946204615F02FFB1CBD06
:1046A00008B5084611460BF064FE0090BDF8000006
:1046B00008BD2DE9F04F0646C87A89B015460F4669
:1046C000022803D8012009B0BDE8F08F18463A69E6
:1046D000B968FDF74BF9041EF5D0207D00F01F00EE
:1046E0000FF0B3FF08B1062008E0207D00F01F00A6
:1046F0000FF09BFF08B1052000E00420226A8146EC
:1047000022B1294630461CF0B6FEB7E0A069E8B3F6
:10471000294602A80AF0A2F9388818B97888B0F5B5
:10472000807F2AD0A88829886A88401A401C01B254
:10473000E8883B1D801A401C02B27888CDE900034E
:10474000B7F9003002A8FCF789FDBDF808002988F8
:104750000844ADF80800BDF80A0069880844ADF8BF
:104760000A00BDF80C0029880844ADF80C00BDF81B
:104770000E0069880844ADF80E0002AA04A8B168CA
:10478000FCF72CFA002879D004A800E00DE0D6F858
:104790000880B060CDF800902A4639463046A369BB
:1047A0000CF00CFEC6F8088068E02A4604A8B16840
:1047B000FCF714FA002861D0BDF81400BDF8101001
:1047C000401A401C0FFA80FB0BEB4B0012F00AF969
:1047D000039004A901A8D6F808A00AF03FF9012126
:1047E00001A80AF0B5F9BDF91000B5F90010BDF93E
:1047F0001280401A0690B5F90200A8EB000534E0DB
:1048000001AA514607A8FCF7E9F960B303980090A4
:1048100006985B4601B22AB2204610F0F5FA01284C
:104820000CD0204610F045FA039812F027F92046E4
:1048300010F03FFA0020C6F808A044E707A8B060CF
:10484000CDF8009001AA39463046039B0CF0B6FD26
:10485000BDF80600401CADF80600BDF80A00401C7B
:10486000ADF80A006D1C08F10108BDF916004045BD
:10487000C6DAC6F808A0039812F000F9204610F036
:1048800018FA1FE7704700002DE9F04717460D465C
:104890008146B1F90260DFF838800FE0B5F90040D9
:1048A00007E0D8F808303A88B1B2A0B29847641C43
:1048B000BF1CB5F90400A042F3DA761CB5F9060076
:1048C000B042EBDA4846BDE8F0470CF0D5BA00003C
:1048D000F845020070B5054610F0BAFC0646286B94
:1048E00019F07EF83168898B884223D295F83C0014
:1048F0006C6A10F0030105D06420012906D002295A
:1049000009D106E0002060F30F0404E060F31744CF
:1049100001E060F31F64304610F05FFD2146284639
:104920000CF088F930B100221C2128460FF0C4F8A1
:10493000012803D119F05AF82863012070BD000046
:104940002DE9F04FA1B0074614468A4604A80CF0A2
:104950001DFB4FF4A021384614F0E9FA9DF81D1014
:1049600060F382018DF81D10A1882088091A491C66
:1049700009B201EBD1714E103044ADF8700060887F
:1049800000213044ADF87200384614F0B8FB81467F
:10499000514608A813F032FB04A810904FF40030E1
:1049A00015902D48099000200A9007F130008346A9
:1049B000FDF7AEF84AE02079032843D1208BADF80B
:1049C0001000208AADF812006079FD2801D9484610
:1049D00002E010FB09F0000A8DF81C002568B5F90B
:1049E0002030E88B18440090D5E90512A06811F03A
:1049F000BBFF8046B5F92030E88B18440090D5E91C
:104A00000512E06811F0B0FF0546608B08AA30443B
:104A1000ADF85C001CA811901A21199438460FF0CB
:104A20004BF8A9B21FFA88F0CDE90001BDF85C305F
:104A30001CAA04A950460CF099FA08AA1B21384672
:104A40000FF03AF821465846FDF75FF80400B2D15E
:104A500021B0BDE8F08F0000C88602002DE9F74FB5
:104A6000C878A0B00C4602287DD9114601A80AF0EA
:104A700007F8B4F92000012829DD94F82200FD2868
:104A800025D3208818B394F82300BDF804104008FB
:104A9000C0F380021144ADF80410BDF80610C0F355
:104AA00040000844ADF8060094F82310BDF8080053
:104AB0004908C1F3C001401AADF8080094F823106A
:104AC000BDF80A00C1F34001401AADF80A00209871
:104AD00001A9826805A8FCF781F8002843D0E07B93
:104AE00010F0070619D0E088ADF80000BDF800000E
:104AF0006189884200D1002601A80DF055F90746CA
:104B00001C210EA8FBF769FCA0788DF85100BDF8B8
:104B10000000ADF840001FB105E060680090E5E7D7
:104B2000208800B9EEB3E078FD2800D3FF2083464B
:104B3000BDF80800BDF80410401A401C0FFA80FAB6
:104B4000BDF80A00BDF80610401A401C01B28946A3
:104B50005046CA4500DB0846B4F90050B5EB600F7B
:104B600000DB451000E043E0BDF81810BDF814006C
:104B7000081A401C0FFA80F84FF0FF301D900020FB
:104B80000790002D00DC87B1404611F02BFF079005
:104B900000232A4601A916A80DF072FB002116A8D1
:104BA00000E01CE00CF020FF1D90BDF81400ADF8F3
:104BB0000C00BDF81800ADF810000798119003A87C
:104BC0000E901390FF208DF850004A465146A01DCC
:104BD0000FF0A4FA040018D0022E0CD015E001A8A2
:104BE0000E90E0788DF850000EA920980DF004FE8C
:104BF00023B0BDE8F08FBDF91410A06800EB4100B0
:104C0000BDF90410A0EB41000F90002F7DD0BDF93D
:104C1000165027E02FB2ADF80E70ADF81270424674
:104C20005946079812F054F8BDF9141043463A4615
:104C300007980DF07BF88DF84800012802D102207A
:104C40008DF84800012E08D1BDF90610A068691A38
:104C500000EB41000088ADF840000EA920980DF04F
:104C6000CBFD6D1CBDF91A00A842D3DAB7E000BF36
:104C7000BDF80600BDF9161038440FFA80F9BDF8EA
:104C80000A00C01B0FFA80FA494503DDBDF91A106E
:104C9000514544DB42465946079812F019F8BDF9D0
:104CA0000C1043464A4607980DF040F88DF848002E
:104CB000012802D102208DF84800BDF9161049459F
:104CC00013DCADF80E90ADF81290012E09D1BDF9AC
:104CD0000620A168A9EB020001EB40000088ADF8B6
:104CE00040000EA920980DF087FDBDF91A1051451E
:104CF00015DBADF80EA0ADF812A0012E0BD1BDF959
:104D00000600A268AAEB000000E009E002EB400008
:104D10000088ADF840000EA920980DF06DFD7F1CB5
:104D2000AF42A5DBBDF80400ADF87800BDF808007F
:104D3000ADF87C00BDF806002844ADF87A00BDF857
:104D40000A00401BADF87E001EA80DF02DF80746A6
:104D500030430CD001208DF84800BDF90A008DF8D1
:104D600050B0A0EB0509BDF90600054435E0BDF8DB
:104D700006008DF850B02844ADF80E00BDF80A00CA
:104D80000EA9401BADF812000020119020980DF0E4
:104D900033FD24E06FB142465946079811F098FF61
:104DA000BDF9141043462AB207980CF0BFFF8DF8E6
:104DB0004800ADF80E50ADF81250012E08D1BDF9E3
:104DC0000600A168281A01EB40000088ADF84000F9
:104DD0000EA920980DF010FD6D1C4D45DADD0798E9
:104DE00008B111F04BFE1D98401C05D01D980DF028
:104DF000F3FA16A80CF0BCFF002C3FF4F9AE2046E5
:104E00000FF086F9F4E6F0B5074608698FB015464D
:104E10000C46002871D0A17E02296ED910F007FA45
:104E2000022820D0694620690FF064FF012864D170
:104E300005A80CF0CBFAA0788DF82000208BADF8F7
:104E40001C00E07E8DF81E00A07E8DF81F00207FE4
:104E50004FF0FF36E0B300996888ADF8060006EB26
:104E600051510844A8E0002641F6FF70CDE90060EA
:104E70000296D4E9041233460DA819F0E9F8284641
:104E800009F039FE01462A88BDF9340001EBD171E1
:104E900002EB610200EBD071A2EB61010844401EFD
:104EA000ADF81000ADF80C10284609F0F8FD0146E9
:104EB0006A88BDF9360001EBD17102EB610100EBAC
:104EC000D072A1EB62010844ADF80E10401E00E064
:104ED00015E0ADF8120005A80CF02EFD60690590F4
:104EE000208BADF82000A07E8DF82E00009603AA3E
:104EF00005A9384623690CF083FA0FB0F0BD2846A7
:104F000009F0F9FD298800EBD07001EB60000099F1
:104F1000C1F38A21A0EB5100ADF80400284609F046
:104F2000BEFD698800EBD07001EB60010098A1EB39
:104F30009051C0F38A22ADF80610BDF80430521E1D
:104F40001A4406EB5050ADF808200844ADF80A00AA
:104F500001AA05A9384623690CF010FACDE700999B
:104F60002888C1F38A21ADF80400491E084410E0E6
:104F700001AA05A9384623690CF000FA0098BDF88B
:104F80000410C0F38A200144ADF80410BDF80810E5
:104F90000844ADF80800BDF90400B5F904108842D2
:104FA000E6DDBDF80610009801EB5051ADF8061093
:104FB000BDF80A1001EB5050ADF80A00BDF906002B
:104FC000B5F906108842CADD97E7F0B5074691F8B3
:104FD000220087B016460C4602286BD9208C002888
:104FE00068D094F8230010F03E0F63D0C00761D161
:104FF000B08831887288401A401C01B2F088B4F938
:105000000050801A401C00B2814200DA0846B5EB1D
:10501000600F00DD4510314604A809F031FD94F819
:105020002300BDF91020C0F344014807B4F9200063
:1050300001D4284440421044ADF810000807BDF9DF
:105040001420B4F9200001D428444042101AADF8CD
:10505000140094F82300BDF9121040088007B4F939
:10506000200001D4284440420844ADF8120094F8CE
:105070002300BDF916104008C007B4F9200001D183
:1050800028444042081AADF81600208C281A00B2B5
:10509000002800DA0020A27894F82210CDE902124C
:1050A000E18BADF8041000902B4604AA3146384637
:1050B00000F002F807B0F0BD2DE9FF4FA9B01D4682
:1050C000DDE93879DDF8D88016460C46FF2F00D38D
:1050D000FF2708460CF068FE2690284350EA080097
:1050E00074D029982146826808A8FBF777FD00282C
:1050F00073D0BDF82400BDF82010401A401C00B247
:1051000004901C210AA811F015FE049811F06AFC05
:105110000D904FF0FF302490002D0ADD00232A4629
:10512000214615A80DF0ACF8002115A80CF05CFC88
:1051300024900123424631461BA80DF0A1F800211E
:105140001BA80CF051FC259001A80A900F90BDF807
:10515000DC008DF84070ADF830008DF84190B4F966
:1051600000002290B6F900C04319634500DC634695
:10517000B4F904000FFA83F92190B6F90430401B0A
:10518000984200DB18460FFA80F8B4F902E0B6F94D
:1051900002000EEB05018246514500DC01460FB2CC
:1051A000B4F906B0B6F90610ABEB05028A4200DB93
:1051B0000A4610B20590A8EB0900401C00B22790E7
:1051C000D6450DDC01200CE000E006E000973246F9
:1051D0002146379B299800F0B8F92DB0BDE8F08F33
:1051E000002082468B4501DB012000E00020834641
:1051F0002698D8B3BDF82000ADF80400BDF824000F
:10520000ADF80800BDF9224022E000BFBAF1000F5E
:1052100001D1A7421BDCBBF1000F02D10598A042CF
:105220001ADB25B2ADF80650ADF80A5004990D9876
:1052300011F0AEFDBDF920102A46049B0D980CF02C
:1052400075FD8DF838000AA929980DF0D5FA641C6F
:10525000BDF92600A042D9DA1BA80CF089FD2598DB
:105260000DF0BAF82498401C07D000E009E015A81A
:105270000CF07EFD24980DF0AFF80D9811F0FEFBB8
:10528000ABE72298604501DC012000E0002013908C
:105290002198984201DB012100E0002101200090CB
:1052A00013981291084000EA0A0010EA0B0F04D08C
:1052B0002798322801DA00200090012000998DF80B
:1052C00038001AEA010F0ED0ADF80490ADF808804E
:1052D0006088ADF8060070880AA9401EADF80A0083
:1052E00029980DF089FA00991BEA010F0ED0ADF84C
:1052F0000490ADF80880F0880AA9401CADF80600BB
:10530000E088ADF80A0029980DF076FA139878B184
:105310002088ADF804003088ADF80670401EADF866
:1053200008000598ADF80A000AA929980DF064FA5A
:10533000129878B1B0880AA9401CADF80400A08882
:10534000ADF808000598ADF80670ADF80A00299888
:105350000DF052FA0098C0B1BDF92400BDF920103B
:10536000A9F10102ADF80410904200DB1046ADF83F
:105370000800401A401C05B2002D70DD139850EA59
:105380000A0066D0BDF9224061E0BDF82000ADF80A
:105390000400BDF82400ADF80800B4F90200B6F925
:1053A0000210401AA84200DB05460FFA85F80025D6
:1053B00033E06088284406B2E088401B07B2BDF99C
:1053C0002200B04203DDBDF92600B84224DB049977
:1053D0000D9811F0DDFCBDF904103246049B0D98C8
:1053E0000CF0A4FC8DF83800BDF92200B04207DCB7
:1053F000ADF80660ADF80A600AA929980DF0FCF92D
:10540000BDF92600B84207DBADF80670ADF80A70AA
:105410000AA929980DF0F0F96D1C4545C9DB8DE00E
:1054200026B2ADF80660ADF80A6029460D9811F075
:10543000AFFCBDF904102B4632460D980CF076FCFB
:105440008DF838000AA929980DF0D6F9641CA742F6
:10545000E6DC139850EA0B001DD0059C16E01AE01C
:1054600026B2ADF80660ADF80A6029460D9811F035
:105470008FFCBDF904102B4632460D980CF056FCFB
:105480008DF838000AA929980DF0B6F9BDF9260063
:10549000641CA042E4DABDF9200008F10101884251
:1054A00000DC0846BDF82410ADF80400081A401CC2
:1054B00005B2ADF80810002D40DD129850EA0A0040
:1054C0001BD0BDF9224016E026B2ADF80660ADF85B
:1054D0000A6029460D9811F05BFCBDF904102B46BB
:1054E00032460D980CF022FC8DF838000AA9299854
:1054F0000DF082F9641CA742E6DC129850EA0B001A
:105500001CD0059C15E026B2ADF80660ADF80A6027
:1055100029460D9811F03CFCBDF904102B4632468B
:105520000D980CF003FC8DF838000AA929980DF0AD
:1055300063F9BDF92600641CA042E4DA1BA80CF054
:1055400017FC25980CF048FF8FE62DE9FF478EB039
:105550000C46824615461C2102A81A9E11F0EAFB51
:10556000CDF808D0BDF84400ADF810008DF82060EB
:10557000B4F90200B5F90210884201DC012700E00D
:105580000027B4F90600B5F90610884201DB0126B0
:1055900000E00026B4F90000B5F90010884201DCF3
:1055A000012100E000218946B4F90410B5F9042076
:1055B000914201DB012100E00021ADF80000A0884C
:1055C000ADF804006088ADF8020068888846401E87
:1055D000ADF806001FB102A950460DF00DF9E8889C
:1055E000401CADF80200E088ADF806001EB102A92B
:1055F00050460DF001F92088ADF800002888401EC3
:10560000ADF8040017B1B5F9020001E0B4F90200E9
:10561000ADF8020016B1B5F9060001E0B4F90600D4
:10562000ADF80600B9F1000F03D002A950460DF005
:10563000E3F8A888401CADF80000A088ADF804008D
:10564000B8F1000F03D002A950460DF0D5F812B002
:10565000BDE8F0872DE9F04F8B46A2F57F4195B06C
:1056600091460646FF3944D0746A208C80469842A1
:1056700004D02384608C40F0040060844FF4802ABE
:105680005146204613F075FF07465146204613F059
:10569000A0FF0546B7F90870304607F008F8B0F9E2
:1056A00016107A1909FB021105EBD570A1EB600009
:1056B000ADF8060038446D1E2844ADF80A00706A43
:1056C000818AADF80410008BADF8080006A80CF034
:1056D000A7FE06AA5146204614F081F901AA06A9A0
:1056E00058460CF089FEA4F82080608C20F004005D
:1056F000608415B0BDE8F08F2DE9F0430E46A2F5A9
:105700007F4191B090460546FF3956D06C6A278C90
:105710009F4204D02384608C40F00400608406A87B
:105720000CF00AF94FF4802906AA4946204614F0E5
:10573000B3F84946204613F04CFFADF82A0028463E
:1057400006F0B5FF050038D00698B5F91620B0F977
:105750000810BDF92A0000EB010C08FB0C2200EB3D
:10576000D073A2EB63021044491EADF80A2008442E
:10577000ADF80E00A08AADF80800208BADF80C0043
:1057800002AA0EA8B168FBF729FA88B10EA8D6F8CC
:105790000880B060284610F09DFA03460020009073
:1057A00005F1140206A930460BF02AFEC6F808805F
:1057B0002784608C20F00400608411B0BDE8F08381
:1057C0002DE9F041274E074670680BF06FFB044649
:1057D0003868856BE96A09B128468847206850B166
:1057E000606828B907E070680068816A01B188477D
:1057F00020690028F7D10120206171680968C96813
:105800008A69D20702D08969890700D400206061C3
:10581000606908B1012600E000263868416971B16D
:10582000016911F0300F06D0490704D5D5E9001001
:1058300000F01AF803E0D5E90021FEF765F92068C9
:1058400000280BD06168002908D03A68127CB24366
:10585000D20703D1A268824202D1A160BDE8F081E3
:10586000A060FBE7D80000202DE9F34F05468A48E9
:1058700093B041680E683069820701D542076ED443
:10588000C0F3011002281ED0012801D0032866D1E0
:1058900000200F9008460BF009FB8346A988B5F954
:1058A0000000EA88091A491C0CB2B5F90210521A14
:1058B000521C17B24FF4A052B2FBF4F3BB420FDA02
:1058C000B2FBF4F20DE029463046149A00F0F0F8ED
:1058D000149A15B029463046BDE8F04FFEF714B9CA
:1058E0003A460C920791317CC1F30111012905D090
:1058F0006880611E0844E8800020BDE07188081AB5
:10590000401EE880001B401C6880F5E70C99A7EB5F
:105910000A00884200DD084600B201900120CBF861
:105920001000BAF1000F20D1A7421EDB0194307C99
:10593000C0F30110032810D000202146149A00F073
:10594000EAF8307CC0F30110012809D031880798AB
:10595000081A401EA880001B56E00120EDE797E0E2
:10596000079828800798204466E00F9820B94FF4E4
:10597000205011F037F80F90307CC0F3011003284D
:105980001BD000208646DDF850C001990F980A9080
:1059900014FB01F0401E0D90601E48430E90002045
:1059A0008146884222DA0E9ABEF1000F02EB09000E
:1059B00001D00D9A101A002212E00120E2E70A9BA2
:1059C000BEF1000F03EB400863460CF1020C1B888C
:1059D000A8F8003001D0084400E0401A521C12B26E
:1059E000A242ECDB09F1010000B2D9E7307CC0F340
:1059F000011001281BD031880798091AA1EB0A0071
:105A0000401EA8800199401A401C288001990AEB89
:105A10000108B84513DBDBF81800C0070FD0DBF82E
:105A2000180080070BD50120CBF814000AE0079876
:105A30005044288001990844401EA880E6E70021D0
:105A4000CBF814100F9828B1024629463046FEF7CD
:105A50005BF805E0149AF8E7B16A09B13046884767
:105A6000DBF810000028F7D101981499604301EB8E
:105A7000400014900FFA88F08246B842FFF646AF15
:105A80000F98002804D015B0BDE8F04F10F0F6BF15
:105A900015B0BDE8F08F0000D800002030B50488B4
:105AA0000D88058010880880188810801C8030BD03
:105AB000F8B58B880C884D881B1BCC885B1C641B3D
:105AC000641C13FB04F300245B1E0DE002EB430691
:105AD00002EB44073588ADF80050B7F800C0A6F8CF
